:100000000C942A000C9447000C9447000C94470071
:100010000C9447000C9447000C9447000C94470044
:100020000C9447000C9447000C9447000C94470034
:100030000C9447000C94B3030C9447000C944700B5
:100040000C9447000C9447000C9447000C94470014
:100050000C94470011241FBECFE5D8E0DEBFCDBF12
:1000600010E0A0E6B0E0E2EBFBE002C005900D92EC
:10007000AC38B107D9F720E0ACE8B0E001C01D9280
:10008000A13CB207E1F70E9435040C94D7050C940B
:10009000000098B3282F207F9F70922B98BBC098A8
:1000A000C19A0000C19832E43A95F1F700C028B334
:1000B00030E1839FC0011124922F9F70892B88BB50
:1000C000C19A0000C19883EF91E00197F1F700C059
:1000D0000000089598B3282F207F9F70922B98BB23
:1000E000C09AC19A0000C19832E43A95F1F700C075
:1000F00028B330E1839FC0011124922F9F70892B78
:1001000088BBC19A0000C19883EF91E00197F1F795
:1001100000C0000008958FEF87BB87E893E1019747
:10012000F1F700C0000082E00E94490088E20E94CE
:1001300049008CE00E94490086E00E94490081E06D
:100140000E94490083EF91E00197F1F700C00000A1
:100150000895CF93DF93EC018881882331F02196B5
:100160000E946A0089918111FBCFDF91CF910895A0
:10017000CF93DF93EC018881882331F021960E9490
:100180006A0089918111FBCFDF91CF91089581E0C1
:100190000E94490083EF91E00197F1F700C0000051
:1001A00080E80E94490008958033A9F08133B1F0BE
:1001B0008233B9F08333C1F08433C9F08533D1F091
:1001C0008633D9F08733E1F08833E9F08933F1F0F1
:1001D00080E090E0089580E090E0089581E090E074
:1001E000089582E090E0089583E090E0089584E02F
:1001F00090E0089585E090E0089586E090E008950D
:1002000087E090E0089588E090E0089589E090E02C
:1002100008952F923F924F925F926F927F928F92AA
:100220009F92AF92BF92CF92DF92EF92FF920F9385
:100230001F93CF93DF93CDB7DEB728970FB6F8940F
:10024000DEBF0FBECDBF44244394512C19821A82C5
:100250001B821C821D821E821F82188603C02FEF04
:10026000421A520A35E043165104C9F329813A81F2
:100270004B815C816D817E818F81988501E00E9438
:100280006505622E732E842E952EB62FA72FF82F7C
:10029000E92F02E00E946505A22EB32EC42ED52EB2
:1002A000E62EF72E082F192F262D372D482D592DE4
:1002B0006B2F7A2F8F2F9E2F0E947E05722E832EFA
:1002C000942EC52ED62EE72EF82E092FF201E259D4
:1002D000FF4F80810E94D400B92EA82E192F110F34
:1002E000110B272D382D492D5C2D6D2D7E2D8F2D39
:1002F000902FC12ED12EE12EF12E012F0E947E05CE
:1003000029833A834B835C836D837E838F839887B5
:100310004AE0441651040CF4A2CF6894AA24A7F82A
:100320000F2EF6E9BF2EF02D0F2EF8E9CF2EF02D6F
:10033000D12CE12CF12C00E010E04B810E949004C4
:10034000A22FB32FC22ED32E20E839E647E65FEF67
:100350000E94860429813A814B815C81620F731F60
:10036000841F951F2CE330E040E050E00E946704BA
:1003700049015A010F2EF6EBEF2EF0E0FF2EF02D83
:1003800001E010E01A8219820F2EF0EA4F2EF6E8F3
:100390005F2E66246394712CF02D0F2EF4E62F2E21
:1003A000312CF02D0BC049815A814F5F5F4F5A832A
:1003B00049830F5F1F4F5FEFE51AF50A89819A8124
:1003C00082309105A4F49601220F331FCC0CDD1C62
:1003D000CC0CDD1CCC0CDD1CC9018C0D9D1DB101AC
:1003E0000E9453046C01605DF701608323C0029793
:1003F00021F4FEE2F093B800D6CF880C991CAA1C19
:10040000BB1CD501C401880F991FAA1FBB1F880FF1
:10041000991FAA1FBB1FBC01CD01680D791D8A1D44
:100420009B1DA30192010E9467044B015C01205DAA
:10043000F70120830A3011050CF4B5CF28960FB6CA
:10044000F894DEBF0FBECDBFDF91CF911F910F910A
:10045000FF90EF90DF90CF90BF90AF909F908F90E4
:100460007F906F905F904F903F902F9008952F92C4
:100470003F924F925F926F927F928F929F92AF9234
:10048000BF92CF92DF92EF92FF920F931F93CF9381
:10049000DF93CDB7DEB728970FB6F894DEBF0FBE57
:1004A000CDBF44244394512C19821A821B821C8292
:1004B0001D821E821F82188603C02FEF421A520A25
:1004C00036E043165104C9F329813A814B815C819E
:1004D0006D817E818F81988501E00E946505622E85
:1004E000732E842E952EB62FA72FF82FE92F02E01A
:1004F0000E946505A22EB32EC42ED52EE62EF72E11
:10050000082F192F262D372D482D592D6B2F7A2F77
:100510008F2F9E2F0E947E05722E832E942EC52E25
:10052000D62EE72EF82E092FF201ED59FF4F8081CC
:100530000E94D400B92EA82E192F110F110B272DB0
:10054000382D492D5C2D6D2D7E2D8F2D902FC12E98
:10055000D12EE12EF12E012F0E947E0529833A83B0
:100560004B835C836D837E838F8398874BE0441637
:1005700051040CF4A2CF6894AA24A7F80F2EF6E930
:10058000BF2EF02D0F2EF8E9CF2EF02DD12CE12C1F
:10059000F12C00E010E04B810E949004A22FB32FB9
:1005A000C22ED32E20E839E647E65FEF0E9486048C
:1005B00029813A814B815C81620F731F841F951FD3
:1005C0002CE330E040E050E00E94670449015A010A
:1005D0000F2EFBEAEF2EF0E0FF2EF02D01E010E0F1
:1005E0001A8219820F2EF0EA4F2EF6E85F2E66244B
:1005F0006394712CF02D0F2EF4E62F2E312CF02D5C
:100600000BC049815A814F5F5F4F5A8349830F5F07
:100610001F4F5FEFE51AF50A89819A8182309105B3
:10062000A4F49601220F331FCC0CDD1CCC0CDD1C76
:10063000CC0CDD1CC9018C0D9D1DB1010E94530421
:100640006C01605DF701608323C0029721F4FEE234
:10065000F093AD00D6CF880C991CAA1CBB1CD50109
:10066000C401880F991FAA1FBB1F880F991FAA1FBB
:10067000BB1FBC01CD01680D791D8A1D9B1DA30107
:1006800092010E9467044B015C01205DF701208309
:100690000A3011050CF4B5CF28960FB6F894DEBFDA
:1006A0000FBECDBFDF91CF911F910F91FF90EF90C3
:1006B000DF90CF90BF90AF909F908F907F906F9082
:1006C0005F904F903F902F9008950E94C70089E758
:1006D00090E00E94A90080916200909163000E94C6
:1006E000B8008EE80E9449008FE790E00E94A900C0
:1006F00080EC0E94490082E890E00E94A90080916D
:100700006000909161000E94B8008EEC0E94490048
:1007100088E890E00E94A90008950E9409010E94C3
:1007200037020895E6EBF0E0A6E9B0E020EC30E017
:1007300081918D93E217F307D9F78CE28093A000A3
:10074000E6EBF0E0A1EAB0E020EC30E081918D939F
:10075000E217F307D9F708958CE089B986E880BDE0
:1007600088E98AB908951F920F920FB60F9211244B
:100770002F933F934F935F938F939F93EF93FF93A9
:100780008CB1843279F410929500109294001092FA
:10079000930010929200109291001092900010928B
:1007A0008F0056C090918F009923B1F18C3251F493
:1007B00020919000309191002F5F3F4F3093910036
:1007C00020939000209190003091910022303105CB
:1007D00081F42091940030919500A9014F5F5F4F03
:1007E0005093950040939400F901E159FF4F8083A5
:1007F0002FC02430310561F5209192003091930093
:10080000A9014F5F5F4F5093930040939200F9010D
:10081000EC59FF4F80831CC090918C00973489F471
:1008200090918D00973469F490918E00913449F441
:1008300081E080938F00ECE8F0E010821182128258
:1008400007C0ECE8F0E091819083928191838283EC
:10085000FF91EF919F918F915F914F913F912F91D8
:100860000F900FBE0F901F9018950E948B002FEFD6
:1008700084E39CE0215080409040E1F700C00000FC
:100880000E94AC0378940E948D030E9465030E942D
:1008900092032FE38DE093E0215080409040E1F7F8
:1008A00000C00000F0CF97FB072E16F4009407D08D
:1008B00077FD09D00E94870507FC05D03EF490958E
:1008C00081959F4F0895709561957F4F0895052EEE
:1008D00097FB1EF400940E947E0457FD07D00E94EF
:1008E0009B0507FC03D04EF40C947E045095409574
:1008F000309521953F4F4F4F5F4F089590958095CC
:10090000709561957F4F8F4F9F4F0895B7FF0C945F
:10091000BD050E94BD05821B930B0895689401C01C
:10092000E894F92FF12B12F00C94C204A0E0B0E08F
:10093000ECE9F4E00C943405092E059422F40E94AD
:100940001E05112392F4F0E80F26FFEFE094F094D7
:1009500000951095B094C094D094A194BF0ACF0A8A
:10096000DF0AEF0AFF0A0F0B1F0B0E94CD0407FCE2
:100970000E941E05CDB7DEB7ECE00C9450056894DC
:1009800001C0E8948F929F92CF93DF930E94CD0491
:10099000DF91CF919F908F90089588249924F4013E
:1009A000E401B0E49F93AA279A158B049C04ED05FB
:1009B000FE05CF05D007A10798F4AD2FDC2FCF2F70
:1009C000FE2FE92D982C892E982F872F762F652FB3
:1009D000542F432F322F2227B85031F7BF9127C011
:1009E0001B2EBF91BB27220F331F441F551F661FAD
:1009F000771F881F991F881C991CEE1FFF1FCC1F93
:100A0000DD1FAA1FBB1F8A149B04EC05FD05CE0544
:100A1000DF05A007B10748F08A189B08EC09FD091B
:100A2000CE09DF09A00BB10B21601A94E1F62EF478
:100A30009401AF01BE01CD01000C08956095709541
:100A40008095909530954095509521953F4F4F4F0B
:100A50005F4F6F4F7F4F8F4F9F4F08952F923F9261
:100A60004F925F926F927F928F929F92AF92BF92BE
:100A7000CF92DF92EF92FF920F931F93CF93DF936A
:100A8000CDB7DEB7CA1BDB0B0FB6F894DEBF0FBEC7
:100A9000CDBF09942A88398848885F846E847D8414
:100AA0008C849B84AA84B984C884DF80EE80FD8016
:100AB0000C811B81AA81B981CE0FD11D0FB6F8948C
:100AC000DEBF0FBECDBFED0108950F93083090F04B
:100AD000982F872F762F652F542F432F322F2227C1
:100AE0000850F4CF220F331F441F551F661F771F76
:100AF000881F991F0A95B2F70F9108952A0D3B1D83
:100B00004C1D5D1D6E1D7F1D801F911F0895AA1B2A
:100B1000BB1B51E107C0AA1FBB1FA617B70710F0E8
:100B2000A61BB70B881F991F5A95A9F7809590951A
:100B3000BC01CD010895A1E21A2EAA1BBB1BFD0129
:100B40000DC0AA1FBB1FEE1FFF1FA217B307E407AC
:100B5000F50720F0A21BB30BE40BF50B661F771F04
:100B6000881F991F1A9469F76095709580959095E4
:100B70009B01AC01BD01CF0108950E94C805A59F4E
:100B8000900DB49F900DA49F800D911D1124089588
:100B9000A29FB001B39FC001A39F700D811D1124BE
:100BA000911DB29F700D811D1124911D0895F8941F
:020BB000FFCF75
:100BB200AB00B60030373330362E3430333838336A
:100BC2003334302E30363431364C61743A200027BB
:0C0BD2004E004C6F6E673A002745000093
:00000001FF
